{
  "_format": "hh-sol-artifact-1",
  "contractName": "ConversionPayment",
  "sourceName": "contracts/Condenser.sol",
  "abi": [
    {
      "inputs": [
        {
          "internalType": "uint256",
          "name": "_conversionFee",
          "type": "uint256"
        }
      ],
      "stateMutability": "nonpayable",
      "type": "constructor"
    },
    {
      "anonymous": false,
      "inputs": [
        {
          "indexed": true,
          "internalType": "address",
          "name": "user",
          "type": "address"
        },
        {
          "indexed": false,
          "internalType": "uint256",
          "name": "amount",
          "type": "uint256"
        }
      ],
      "name": "ConversionPaid",
      "type": "event"
    },
    {
      "inputs": [],
      "name": "conversionFee",
      "outputs": [
        {
          "internalType": "uint256",
          "name": "",
          "type": "uint256"
        }
      ],
      "stateMutability": "view",
      "type": "function"
    },
    {
      "inputs": [],
      "name": "owner",
      "outputs": [
        {
          "internalType": "address",
          "name": "",
          "type": "address"
        }
      ],
      "stateMutability": "view",
      "type": "function"
    },
    {
      "inputs": [],
      "name": "payForConversion",
      "outputs": [],
      "stateMutability": "payable",
      "type": "function"
    },
    {
      "inputs": [
        {
          "internalType": "uint256",
          "name": "_fee",
          "type": "uint256"
        }
      ],
      "name": "setConversionFee",
      "outputs": [],
      "stateMutability": "nonpayable",
      "type": "function"
    },
    {
      "inputs": [],
      "name": "withdraw",
      "outputs": [],
      "stateMutability": "nonpayable",
      "type": "function"
    }
  ],
  "bytecode": "0x608060405234801561001057600080fd5b506040516106d23803806106d2833981810160405281019061003291906100ba565b336000806101000a81548173ffffffffffffffffffffffffffffffffffffffff021916908373ffffffffffffffffffffffffffffffffffffffff16021790555080600181905550506100e7565b600080fd5b6000819050919050565b61009781610084565b81146100a257600080fd5b50565b6000815190506100b48161008e565b92915050565b6000602082840312156100d0576100cf61007f565b5b60006100de848285016100a5565b91505092915050565b6105dc806100f66000396000f3fe60806040526004361061004a5760003560e01c80633ccfd60b1461004f578063579cd3ca146100665780638da5cb5b14610091578063a58dd285146100bc578063c88b7c8e146100c6575b600080fd5b34801561005b57600080fd5b506100646100ef565b005b34801561007257600080fd5b5061007b6101e6565b6040516100889190610356565b60405180910390f35b34801561009d57600080fd5b506100a66101ec565b6040516100b391906103b2565b60405180910390f35b6100c4610210565b005b3480156100d257600080fd5b506100ed60048036038101906100e891906103fe565b6102a5565b005b60008054906101000a900473ffffffffffffffffffffffffffffffffffffffff1673ffffffffffffffffffffffffffffffffffffffff163373ffffffffffffffffffffffffffffffffffffffff161461017d576040517f08c379a000000000000000000000000000000000000000000000000000000000815260040161017490610488565b60405180910390fd5b60008054906101000a900473ffffffffffffffffffffffffffffffffffffffff1673ffffffffffffffffffffffffffffffffffffffff166108fc479081150290604051600060405180830381858888f193505050501580156101e3573d6000803e3d6000fd5b50565b60015481565b60008054906101000a900473ffffffffffffffffffffffffffffffffffffffff1681565b600154341015610255576040517f08c379a000000000000000000000000000000000000000000000000000000000815260040161024c9061051a565b60405180910390fd5b3373ffffffffffffffffffffffffffffffffffffffff167f0222657c4c26deeff81628859958e83e21e01e0a8c011cb05680740e9500eb663460405161029b9190610356565b60405180910390a2565b60008054906101000a900473ffffffffffffffffffffffffffffffffffffffff1673ffffffffffffffffffffffffffffffffffffffff163373ffffffffffffffffffffffffffffffffffffffff1614610333576040517f08c379a000000000000000000000000000000000000000000000000000000000815260040161032a90610586565b60405180910390fd5b8060018190555050565b6000819050919050565b6103508161033d565b82525050565b600060208201905061036b6000830184610347565b92915050565b600073ffffffffffffffffffffffffffffffffffffffff82169050919050565b600061039c82610371565b9050919050565b6103ac81610391565b82525050565b60006020820190506103c760008301846103a3565b92915050565b600080fd5b6103db8161033d565b81146103e657600080fd5b50565b6000813590506103f8816103d2565b92915050565b600060208284031215610414576104136103cd565b5b6000610422848285016103e9565b91505092915050565b600082825260208201905092915050565b7f4f6e6c79206f776e65722063616e2077697468647261772066756e6473000000600082015250565b6000610472601d8361042b565b915061047d8261043c565b602082019050919050565b600060208201905081810360008301526104a181610465565b9050919050565b7f496e73756666696369656e742066756e647320666f7220636f6e76657273696f60008201527f6e20666565000000000000000000000000000000000000000000000000000000602082015250565b600061050460258361042b565b915061050f826104a8565b604082019050919050565b60006020820190508181036000830152610533816104f7565b9050919050565b7f4f6e6c79206f776e65722063616e207365742074686520666565000000000000600082015250565b6000610570601a8361042b565b915061057b8261053a565b602082019050919050565b6000602082019050818103600083015261059f81610563565b905091905056fea2646970667358221220ce4cb2650cd0c1a078c59f8699a6a9bb7a344823daa0ceede7d61d5f5254352164736f6c63430008180033",
  "linkReferences": {},
  "deployedLinkReferences": {}
}